:020000040000fa
:080000000002040000000000f2
:020000040000fa
:04000800c80200002a
:020000040000fa
:04000c00c802000026
:020000040000fa
:04001000c802000022
:020000040000fa
:04001400c80200001e
:020000040000fa
:04001800c80200001a
:020000040000fa
:04001c00c802000016
:020000040000fa
:04002000c802000012
:020000040000fa
:04002400c80200000e
:020000040000fa
:04002800c80200000a
:020000040000fa
:04002c00c802000006
:020000040000fa
:04003000c802000002
:020000040000fa
:04003400c8020000fe
:020000040000fa
:04003800c8020000fa
:020000040000fa
:04003c00c8020000f6
:020000040000fa
:04004000c8020000f2
:020000040000fa
:04004400c8020000ee
:020000040000fa
:04004800c8020000ea
:020000040000fa
:04004c00c8020000e6
:020000040000fa
:04005000c8020000e2
:020000040000fa
:04005400c8020000de
:020000040000fa
:04005800c8020000da
:020000040000fa
:04005c00c8020000d6
:020000040000fa
:04006000c8020000d2
:020000040000fa
:04006400c8020000ce
:020000040000fa
:04006800c8020000ca
:020000040000fa
:04006c00c8020000c6
:020000040000fa
:04007000c8020000c2
:020000040000fa
:04007400c8020000be
:020000040000fa
:04007800c8020000ba
:020000040000fa
:04007c00c8020000b6
:020000040000fa
:04008000c8020000b2
:020000040000fa
:04008400c8020000ae
:020000040000fa
:04008800c8020000aa
:020000040000fa
:04008c00c8020000a6
:020000040000fa
:04009000c8020000a2
:020000040000fa
:04009400c80200009e
:020000040000fa
:04009800c80200009a
:020000040000fa
:04009c00c802000096
:020000040000fa
:0400a000c802000092
:020000040000fa
:0400a400c80200008e
:020000040000fa
:0400a800c80200008a
:020000040000fa
:0400ac00c802000086
:020000040000fa
:0400b000c802000082
:020000040000fa
:0400b400c80200007e
:020000040000fa
:0400b800c80200007a
:020000040000fa
:0400bc00c802000076
:020000040000fa
:0400c000c802000072
:020000040000fa
:0400c400c80200006e
:020000040000fa
:0400c800c80200006a
:020000040000fa
:0400cc00c802000066
:020000040000fa
:0400d000c802000062
:020000040000fa
:0400d400c80200005e
:020000040000fa
:0400d800c80200005a
:020000040000fa
:0400dc00c802000056
:020000040000fa
:0400e000c802000052
:020000040000fa
:0400e400c80200004e
:020000040000fa
:0400e800c80200004a
:020000040000fa
:0400ec00c802000046
:020000040000fa
:0400f000c802000042
:020000040000fa
:0400f400c80200003e
:020000040000fa
:0400f800c80200003a
:020000040000fa
:0400fc00c802000036
:020000040000fa
:04010000c802000031
:020000040000fa
:04010400c80200002d
:020000040000fa
:04010800c802000029
:020000040000fa
:04010c00c802000025
:020000040000fa
:04011000c802000021
:020000040000fa
:04011400c80200001d
:020000040000fa
:04011800c802000019
:020000040000fa
:04011c00c802000015
:020000040000fa
:04012000c802000011
:020000040000fa
:04012400c80200000d
:020000040000fa
:04012800c802000009
:020000040000fa
:04012c00c802000005
:020000040000fa
:04013000c802000001
:020000040000fa
:04013400c8020000fd
:020000040000fa
:04020800c802000028
:020000040000fa
:04020c00c802000024
:020000040000fa
:04021000c802000020
:020000040000fa
:04021400c80200001c
:020000040000fa
:04021800c802000018
:020000040000fa
:04021c00c802000014
:020000040000fa
:04022000c802000010
:020000040000fa
:04022400c80200000c
:020000040000fa
:04022800c802000008
:020000040000fa
:04022c00c802000004
:020000040000fa
:04023000c802000000
:020000040000fa
:04023400c8020000fc
:020000040000fa
:04023800c8020000f8
:020000040000fa
:04023c00c8020000f4
:020000040000fa
:04024000c8020000f0
:020000040000fa
:04024400c8020000ec
:020000040000fa
:04024800c8020000e8
:020000040000fa
:04024c00c8020000e4
:020000040000fa
:04025000c8020000e0
:020000040000fa
:04025400c8020000dc
:020000040000fa
:04025800c8020000d8
:020000040000fa
:04025c00c8020000d4
:020000040000fa
:04026000c8020000d0
:020000040000fa
:04026400c8020000cc
:020000040000fa
:04026800c8020000c8
:020000040000fa
:04026c00c8020000c4
:020000040000fa
:04027000c8020000c0
:020000040000fa
:04027400c8020000bc
:020000040000fa
:04027800c8020000b8
:020000040000fa
:04027c00c8020000b4
:020000040000fa
:04028000c8020000b0
:020000040000fa
:04028400c8020000ac
:020000040000fa
:04028800c8020000a8
:020000040000fa
:04028c00c8020000a4
:020000040000fa
:04029000c8020000a0
:020000040000fa
:04029400c80200009c
:020000040000fa
:04029800c802000098
:020000040000fa
:04029c00c802000094
:020000040000fa
:0402a000c802000090
:020000040000fa
:0402a400c80200008c
:020000040000fa
:0402a800c802000088
:020000040000fa
:0402ac00c802000084
:020000040000fa
:0402b000c802000080
:020000040000fa
:0402b400c80200007c
:020000040000fa
:0402b800c802000078
:020000040000fa
:0402bc00c802000074
:020000040000fa
:0402c000c802000070
:020000040000fa
:0402c400c80200006c
:020000040000fa
:0402c800c802000068
:020000040000fa
:0402cc00c802000064
:020000040000fa
:0402d000c802000060
:020000040000fa
:0402d400c80200005c
:020000040000fa
:0402d800c802000058
:020000040000fa
:0402dc00c802000054
:020000040000fa
:0402e000c802000050
:020000040000fa
:0402e400c80200004c
:020000040000fa
:0402e800c802000048
:020000040000fa
:0402ec00c802000044
:020000040000fa
:0402f000c802000040
:020000040000fa
:0402f400c80200003c
:020000040000fa
:0402f800c802000038
:020000040000fa
:0402fc00c802000034
:020000040000fa
:04030000c80200002f
:020000040000fa
:04030400c80200002b
:020000040000fa
:04030800c802000027
:020000040000fa
:04030c00c802000023
:020000040000fa
:04031000c80200001f
:020000040000fa
:04031400c80200001b
:020000040000fa
:04031800c802000017
:020000040000fa
:04031c00c802000013
:020000040000fa
:04032000c80200000f
:020000040000fa
:04032400c80200000b
:020000040000fa
:04032800c802000007
:020000040000fa
:04032c00c802000003
:020000040000fa
:04033000c8020000ff
:020000040000fa
:04033400c8020000fb
:020000040000fa
:100400002f8020000e7f22000e01880000000000d7
:10041000000020000000e000020032000001200087
:1004200020028800140007005b0007000000e000c5
:1004300003003a00a0622000010020000200370003
:100440000000200001002000810f70000100320038
:1004500014000700000020000000e000020032004d
:100460000000020000000000bc04020000000000c8
:100470000040da000000fe004440a900a002200075
:100480000000e0000300320000002000a00188000e
:100490004440a800000006008a1f78008b1f7800e7
:1004a0000000060091018800800478000000eb0045
:1004b0001a003700e284440032a0b4009905ba0063
:1004c000e284440032a0b4009906ba00e2844400f9
:1004d00032a0b4000006eb00476fde00fd07b2005b
:1004e000636ce10003003a00ebff07000000eb0043
:1004f0000a003700606ce10004003a00005deb0088
:100500008b05e900fdff3e00040037006168e10053
:10051000010032000086eb000b00070019c7ba008b
:100520001905ba000e04e00003003a000a00e000da
:10053000e0ff3a0000000600fe07b2009e018800be
:100540008a047800f5ff3700395dba008b05e900b1
:100550000c003200295dba008b05e900080032006a
:100560000c00e00003003a00e284440032a0b40032
:10057000f5ff370019ddba008b05e900faff3a00f4
:100580008904e800e184440032a0b40000000600c1
:0c0590000040da000000fe000000050042
:020000040000fa
:10059c005375000063630000657300007366000010
:1005ac00756c00006c790000005000006f77000043
:1005bc006572000065640000204f00006e000000b2
:1005cc0052530000204300006f6e0000666900006b
:1005dc006700000053750000636300006573000042
:0405ec007300000098
:020000040000fa
:1005f0000000fa0000c3b3009e000700a000200026
:10060000bf000700b0c0b3009a000700a0002000a0
:10061000bb00070060c0b30096000700a0002000e8
:10062000b7000700d0c0b30092000700a000200070
:10063000b300070020c2b3008e000700a000200016
:10064000af000700f0c0b3008a000700a000200040
:10065000ab00070040ccb30086000700a0002000dc
:10066000a700070010c1b30082000700a00020000f
:10067000a300070030c8b3007e000700a0002000e0
:100680009f00070030c1b3007a000700a0002000df
:100690009b00070000c2b30076000700a000200006
:1006a00097000700a0c0b30072000700a000200060
:1006b000930007000040eb006e000700a000200040
:1006c0008f00070010c2b3006a000700a0002000de
:1006d0008b00070060c5b30066000700a000200083
:1006e0008700070080c1b30062000700a00020005f
:1006f0008300070080c1b3005e000700a000200057
:100700007f00070070c1b3005a000700a00020005e
:100710007b000700a000200079000700c0c6b300de
:1007200054000700a000200075000700c0c1b300fe
:1007300050000700a00020007100070000c4b300b3
:100740004c000700a00020006d00070030c2b3007d
:1007500048000700a00020006900070090ceb30009
:1007600044000700a00020006500070050c2b3004d
:1007700040000700a0002000610007000040eb00df
:100780003c000700a00020005d00070090c2b300fd
:1007900038000700a00020005900070090c5b300f2
:1007a00034000700a000200055000700d0c2b300ad
:1007b00030000700a00020005100070050c3b30024
:1007c0002c000700a00020004d00070030c0b3003f
:1007d00028000700a00020004900070070c4b300f3
:1007e00024000700a00020004500070020c0b3003f
:1007f00020000700a00020004100070060c0b300f7
:100800001c000700a00020003d00070080c0b300ce
:1008100018000700a00020003900070050c0b300f6
:1008200014000700a00020003500070060c0b300de
:1008300010000700a00020003100070000c0eb00fe
:100840000c000700a00020002d0007000000eb00b6
:100850000080fa00000006000000fa0000122000ec
:100860001012880000002800001288000080fa00a2
:10087000000006000200fa00004f780000000000af
:1008800000128000620060000000e000fcff3a00ff
:100890001e80fb0040128800000000000012800053
:1008a000610060000000e000fcff320040128000a8
:1008b000004078000080fa00000006000000fa0006
:1008c0000000000000128000620060000000e000f4
:1008d000fcff3a00d0032000401288000000000016
:1008e00000128000610060000000e000fcff3200a8
:1008f00040128000004078000080fa0000000600ee
:100900000200fa00000f780000012800800888002b
:100910000621ef00000000001e00780000004000eb
:100920008000780030088000808f5000faff3e0081
:100930000080fa00000006000200fa00000f7800b4
:1009400000032800800888000621ef000000000056
:100950009e007800f00320000088b90000007800b5
:100960008000780030088000808f5000f8ff3e0043
:100970000080fa00000006000000fa00c022ef002c
:10098000100020001016880000022000eaff070077
:10099000380007004000070011c0b3000000eb0062
:1009a000670007001000200089000700e02c2800e5
:1009b000780007002000200085000700b02d2800e7
:1009c00074000700401f2000dbff0700401f2000cd
:1009d000d9ff0700401f2000d7ff0700401f20005d
:1009e000d5ff070011c0b3000000eb005400070062
:1009f00099ff0700c222ef0040022000ceff07004f
:100a0000fbfe070020032000bdff070010002000b0
:100a10006f000700602e28005e0007002000200005
:100a20006b000700002f28005a000700b0c8b30071
:100a300090ff07000080fb0000408800800c200031
:100a4000afff07009dff07000080fb00004088000b
:100a5000800c2000aaff070010002000101688005c
:100a6000a0002000a6ff0700401f2000b2ff0700e3
:100a7000fdff37000000fa00303028000030880009
:100a8000f03f200010308800100020006030880007
:100a90000080fa00000006000000fa000426ef00c3
:100aa000800320004030880010002000a2ff0700d3
:100ab000c000200040308800100020009eff07008a
:100ac0001000200040308800200020009aff07001e
:100ad00060002000403088002000200096ff0700c2
:100ae0000080fa00000006000400fa0010079800d9
:100af000000000001130800000002800008060002d
:100b00000000e000fbff3a001e009000203088004b
:100b100040308000000f780000000000113080009d
:100b200000002800008060000000e000fbff3a00a9
:100b300040308000004078000080fa00000006008d
:100b40000400fa00000f7800214798000000000020
:100b50000000eb00e4ff07000004e000fcff3500ac
:100b600000000000113080000000280000806000bc
:100b70000000e000fbff3a001e00780020308800f3
:100b80002e4090000000fb00403088000080fa00fa
:100b9000000006000200fa00000f7800060037008f
:100ba0001e007800104078001e0fe800804078009a
:100bb00010002000e2ff07001e00780010407800bf
:100bc0000004e000f6ff3a000080fa000000060092
:100bd0000400fa00100798001e009000e10f50007a
:100be00004003a0001c8b3000000eb00d4ff070086
:100bf000160037001e009000e20f500004003a007b
:100c000001ccb3000000eb00cdff07000f00370060
:100c1000c022ef0010002000000f7800080037000d
:100c2000f00f200010168800803e200042ff0700d1
:100c3000c222ef00401f20003fff07001e0fe80008
:100c40001e007800f30f5000f5ff34000080fa001a
:040c5000000006009a
:020000040000fa
:100c54000008000002000000000000000000000086
:020000040000fa
:020000040002f8
:04aff800bd7b00001d
:020000040000fa
:020000040002f8
:04affc007f3f000093
:00000001FF
